{
  "address": "0x00412Cc887c0EEE470356e9D9c38f3Cb1C46547E",
  "abi": [
    {
      "inputs": [],
      "stateMutability": "nonpayable",
      "type": "constructor"
    },
    {
      "anonymous": false,
      "inputs": [
        {
          "indexed": true,
          "internalType": "string",
          "name": "project_Name",
          "type": "string"
        },
        {
          "indexed": true,
          "internalType": "address",
          "name": "funder",
          "type": "address"
        },
        {
          "indexed": false,
          "internalType": "uint256",
          "name": "amountFunded",
          "type": "uint256"
        }
      ],
      "name": "projectFunded",
      "type": "event"
    },
    {
      "inputs": [
        {
          "internalType": "uint256",
          "name": "projectId",
          "type": "uint256"
        },
        {
          "internalType": "uint256",
          "name": "amount",
          "type": "uint256"
        }
      ],
      "name": "PoolFundProject",
      "outputs": [],
      "stateMutability": "payable",
      "type": "function"
    },
    {
      "inputs": [
        {
          "internalType": "string",
          "name": "name",
          "type": "string"
        },
        {
          "internalType": "string",
          "name": "about",
          "type": "string"
        },
        {
          "internalType": "uint256",
          "name": "raisedMoney",
          "type": "uint256"
        },
        {
          "internalType": "address",
          "name": "_lead",
          "type": "address"
        }
      ],
      "name": "addProject",
      "outputs": [],
      "stateMutability": "nonpayable",
      "type": "function"
    },
    {
      "inputs": [],
      "name": "fundPool",
      "outputs": [],
      "stateMutability": "payable",
      "type": "function"
    },
    {
      "inputs": [
        {
          "internalType": "uint256",
          "name": "projectId",
          "type": "uint256"
        }
      ],
      "name": "fundProject",
      "outputs": [],
      "stateMutability": "payable",
      "type": "function"
    },
    {
      "inputs": [
        {
          "internalType": "uint256",
          "name": "projectId",
          "type": "uint256"
        }
      ],
      "name": "getProjectsDetails",
      "outputs": [
        {
          "components": [
            {
              "internalType": "address",
              "name": "lead",
              "type": "address"
            },
            {
              "internalType": "string",
              "name": "name",
              "type": "string"
            },
            {
              "internalType": "string",
              "name": "about",
              "type": "string"
            },
            {
              "internalType": "uint256",
              "name": "projectId",
              "type": "uint256"
            },
            {
              "internalType": "uint256",
              "name": "raisedMoney",
              "type": "uint256"
            }
          ],
          "internalType": "struct crowdFunding.Projects",
          "name": "",
          "type": "tuple"
        }
      ],
      "stateMutability": "view",
      "type": "function"
    }
  ],
  "transactionHash": "0x43bb09e6bf31e841325b79ecc338ef824132b8034cb05b0ec10067b124764cb1",
  "args": [],
  "numDeployments": 1,
  "solcInputHash": "f0ceb8d938857ba6160b75c9f076bf8c",
  "bytecode": "0x60a060405234801561001057600080fd5b503373ffffffffffffffffffffffffffffffffffffffff1660808173ffffffffffffffffffffffffffffffffffffffff168152505060006003819055506080516112646100756000396000818160f901528181610222015261043e01526112646000f3fe60806040526004361061004a5760003560e01c80632cf88b411461004f5780636c563abe1461006b57806370f37d2714610087578063812ac52f14610091578063ab381c3c146100ba575b600080fd5b61006960048036038101906100649190610837565b6100f7565b005b61008560048036038101906100809190610877565b6102bd565b005b61008f61043a565b005b34801561009d57600080fd5b506100b860048036038101906100b39190610a48565b61043c565b005b3480156100c657600080fd5b506100e160048036038101906100dc9190610877565b6105ee565b6040516100ee9190610c01565b60405180910390f35b7f000000000000000000000000000000000000000000000000000000000000000073ffffffffffffffffffffffffffffffffffffffff163373ffffffffffffffffffffffffffffffffffffffff1614610185576040517f08c379a000000000000000000000000000000000000000000000000000000000815260040161017c90610ca6565b60405180910390fd5b600080600084815260200190815260200160002060000160009054906101000a900473ffffffffffffffffffffffffffffffffffffffff1690508073ffffffffffffffffffffffffffffffffffffffff166108fc839081150290604051600060405180830381858888f19350505050158015610205573d6000803e3d6000fd5b5081600080858152602001908152602001600020600401819055507f000000000000000000000000000000000000000000000000000000000000000073ffffffffffffffffffffffffffffffffffffffff166000808581526020019081526020016000206001016040516102799190610dc9565b60405180910390207f9cb2547925bf4ce3a28c8ed03d0fcbc5099675102c6cbc550aa82ce27f878349846040516102b09190610def565b60405180910390a3505050565b600080600083815260200190815260200160002060000160009054906101000a900473ffffffffffffffffffffffffffffffffffffffff16905060008173ffffffffffffffffffffffffffffffffffffffff163460405161031d90610e3b565b60006040518083038185875af1925050503d806000811461035a576040519150601f19603f3d011682016040523d82523d6000602084013e61035f565b606091505b505090503460008085815260200190815260200160002060040181905550806103bd576040517f08c379a00000000000000000000000000000000000000000000000000000000081526004016103b490610e9c565b60405180910390fd5b3373ffffffffffffffffffffffffffffffffffffffff166000808581526020019081526020016000206001016040516103f69190610dc9565b60405180910390207f9cb2547925bf4ce3a28c8ed03d0fcbc5099675102c6cbc550aa82ce27f8783493460405161042d9190610def565b60405180910390a3505050565b565b7f000000000000000000000000000000000000000000000000000000000000000073ffffffffffffffffffffffffffffffffffffffff163373ffffffffffffffffffffffffffffffffffffffff16146104ca576040517f08c379a00000000000000000000000000000000000000000000000000000000081526004016104c190610f2e565b60405180910390fd5b60006040518060a001604052808373ffffffffffffffffffffffffffffffffffffffff168152602001868152602001858152602001600354815260200184815250905080600080600354815260200190815260200160002060008201518160000160006101000a81548173ffffffffffffffffffffffffffffffffffffffff021916908373ffffffffffffffffffffffffffffffffffffffff160217905550602082015181600101908161057e91906110e5565b50604082015181600201908161059491906110e5565b5060608201518160030155608082015181600401559050508460026000600354815260200190815260200160002090816105ce91906110e5565b50600360008154809291906105e2906111e6565b91905055505050505050565b6105f66107a8565b6000808381526020019081526020016000206040518060a00160405290816000820160009054906101000a900473ffffffffffffffffffffffffffffffffffffffff1673ffffffffffffffffffffffffffffffffffffffff1673ffffffffffffffffffffffffffffffffffffffff16815260200160018201805461067990610cf5565b80601f01602080910402602001604051908101604052809291908181526020018280546106a590610cf5565b80156106f25780601f106106c7576101008083540402835291602001916106f2565b820191906000526020600020905b8154815290600101906020018083116106d557829003601f168201915b5050505050815260200160028201805461070b90610cf5565b80601f016020809104026020016040519081016040528092919081815260200182805461073790610cf5565b80156107845780601f1061075957610100808354040283529160200191610784565b820191906000526020600020905b81548152906001019060200180831161076757829003601f168201915b50505050508152602001600382015481526020016004820154815250509050919050565b6040518060a00160405280600073ffffffffffffffffffffffffffffffffffffffff168152602001606081526020016060815260200160008152602001600081525090565b6000604051905090565b600080fd5b600080fd5b6000819050919050565b61081481610801565b811461081f57600080fd5b50565b6000813590506108318161080b565b92915050565b6000806040838503121561084e5761084d6107f7565b5b600061085c85828601610822565b925050602061086d85828601610822565b9150509250929050565b60006020828403121561088d5761088c6107f7565b5b600061089b84828501610822565b91505092915050565b600080fd5b600080fd5b6000601f19601f8301169050919050565b7f4e487b7100000000000000000000000000000000000000000000000000000000600052604160045260246000fd5b6108f7826108ae565b810181811067ffffffffffffffff82111715610916576109156108bf565b5b80604052505050565b60006109296107ed565b905061093582826108ee565b919050565b600067ffffffffffffffff821115610955576109546108bf565b5b61095e826108ae565b9050602081019050919050565b82818337600083830152505050565b600061098d6109888461093a565b61091f565b9050828152602081018484840111156109a9576109a86108a9565b5b6109b484828561096b565b509392505050565b600082601f8301126109d1576109d06108a4565b5b81356109e184826020860161097a565b91505092915050565b600073ffffffffffffffffffffffffffffffffffffffff82169050919050565b6000610a15826109ea565b9050919050565b610a2581610a0a565b8114610a3057600080fd5b50565b600081359050610a4281610a1c565b92915050565b60008060008060808587031215610a6257610a616107f7565b5b600085013567ffffffffffffffff811115610a8057610a7f6107fc565b5b610a8c878288016109bc565b945050602085013567ffffffffffffffff811115610aad57610aac6107fc565b5b610ab9878288016109bc565b9350506040610aca87828801610822565b9250506060610adb87828801610a33565b91505092959194509250565b610af081610a0a565b82525050565b600081519050919050565b600082825260208201905092915050565b60005b83811015610b30578082015181840152602081019050610b15565b60008484015250505050565b6000610b4782610af6565b610b518185610b01565b9350610b61818560208601610b12565b610b6a816108ae565b840191505092915050565b610b7e81610801565b82525050565b600060a083016000830151610b9c6000860182610ae7565b5060208301518482036020860152610bb48282610b3c565b91505060408301518482036040860152610bce8282610b3c565b9150506060830151610be36060860182610b75565b506080830151610bf66080860182610b75565b508091505092915050565b60006020820190508181036000830152610c1b8184610b84565b905092915050565b600082825260208201905092915050565b7f596f7520617265206e6f7420746865206f776e657220796f752063616e6e6f7460008201527f2066756e6420746865207465616d2066726f6d20706f6f6c2066756e64730000602082015250565b6000610c90603e83610c23565b9150610c9b82610c34565b604082019050919050565b60006020820190508181036000830152610cbf81610c83565b9050919050565b7f4e487b7100000000000000000000000000000000000000000000000000000000600052602260045260246000fd5b60006002820490506001821680610d0d57607f821691505b602082108103610d2057610d1f610cc6565b5b50919050565b600081905092915050565b60008190508160005260206000209050919050565b60008154610d5381610cf5565b610d5d8186610d26565b94506001821660008114610d785760018114610d8d57610dc0565b60ff1983168652811515820286019350610dc0565b610d9685610d31565b60005b83811015610db857815481890152600182019150602081019050610d99565b838801955050505b50505092915050565b6000610dd58284610d46565b915081905092915050565b610de981610801565b82525050565b6000602082019050610e046000830184610de0565b92915050565b600081905092915050565b50565b6000610e25600083610e0a565b9150610e3082610e15565b600082019050919050565b6000610e4682610e18565b9150819050919050565b7f4661696c656420746f2073656e64204574686572000000000000000000000000600082015250565b6000610e86601483610c23565b9150610e9182610e50565b602082019050919050565b60006020820190508181036000830152610eb581610e79565b9050919050565b7f596f7520617265206e6f7420746865206f776e657220796f752063616e6e6f7460008201527f2061646420796f7572207465616d000000000000000000000000000000000000602082015250565b6000610f18602e83610c23565b9150610f2382610ebc565b604082019050919050565b60006020820190508181036000830152610f4781610f0b565b9050919050565b60006020601f8301049050919050565b600082821b905092915050565b600060088302610f9b7fffffffffffffffffffffffffffffffffffffffffffffffffffffffffffffffff82610f5e565b610fa58683610f5e565b95508019841693508086168417925050509392505050565b6000819050919050565b6000610fe2610fdd610fd884610801565b610fbd565b610801565b9050919050565b6000819050919050565b610ffc83610fc7565b61101061100882610fe9565b848454610f6b565b825550505050565b600090565b611025611018565b611030818484610ff3565b505050565b5b818110156110545761104960008261101d565b600181019050611036565b5050565b601f8211156110995761106a81610d31565b61107384610f4e565b81016020851015611082578190505b61109661108e85610f4e565b830182611035565b50505b505050565b600082821c905092915050565b60006110bc6000198460080261109e565b1980831691505092915050565b60006110d583836110ab565b9150826002028217905092915050565b6110ee82610af6565b67ffffffffffffffff811115611107576111066108bf565b5b6111118254610cf5565b61111c828285611058565b600060209050601f83116001811461114f576000841561113d578287015190505b61114785826110c9565b8655506111af565b601f19841661115d86610d31565b60005b8281101561118557848901518255600182019150602085019450602081019050611160565b868310156111a2578489015161119e601f8916826110ab565b8355505b6001600288020188555050505b505050505050565b7f4e487b7100000000000000000000000000000000000000000000000000000000600052601160045260246000fd5b60006111f182610801565b91507fffffffffffffffffffffffffffffffffffffffffffffffffffffffffffffffff8203611223576112226111b7565b5b60018201905091905056fea264697066735822122065f214289504d4a55781dc06149dc00bcd0dc89a3b1a43ed43dbfbf53b4f685b64736f6c63430008120033",
  "devdoc": {
    "kind": "dev",
    "methods": {},
    "version": 1
  },
  "userdoc": {
    "kind": "user",
    "methods": {},
    "version": 1
  },
  "storageLayout": {
    "storage": [
      {
        "astId": 30,
        "contract": "contracts/crowdFunding.sol:crowdFunding",
        "label": "idToProject",
        "offset": 0,
        "slot": "0",
        "type": "t_mapping(t_uint256,t_struct(Projects)20_storage)"
      },
      {
        "astId": 35,
        "contract": "contracts/crowdFunding.sol:crowdFunding",
        "label": "fundersDetail",
        "offset": 0,
        "slot": "1",
        "type": "t_mapping(t_address,t_struct(Funders)25_storage)"
      },
      {
        "astId": 41,
        "contract": "contracts/crowdFunding.sol:crowdFunding",
        "label": "projectIdsWithName",
        "offset": 0,
        "slot": "2",
        "type": "t_mapping(t_uint256,t_string_storage)"
      },
      {
        "astId": 43,
        "contract": "contracts/crowdFunding.sol:crowdFunding",
        "label": "currProjectId",
        "offset": 0,
        "slot": "3",
        "type": "t_uint256"
      }
    ],
    "types": {
      "t_address": {
        "encoding": "inplace",
        "label": "address",
        "numberOfBytes": "20"
      },
      "t_mapping(t_address,t_struct(Funders)25_storage)": {
        "encoding": "mapping",
        "key": "t_address",
        "label": "mapping(address => struct crowdFunding.Funders)",
        "numberOfBytes": "32",
        "value": "t_struct(Funders)25_storage"
      },
      "t_mapping(t_uint256,t_string_storage)": {
        "encoding": "mapping",
        "key": "t_uint256",
        "label": "mapping(uint256 => string)",
        "numberOfBytes": "32",
        "value": "t_string_storage"
      },
      "t_mapping(t_uint256,t_struct(Projects)20_storage)": {
        "encoding": "mapping",
        "key": "t_uint256",
        "label": "mapping(uint256 => struct crowdFunding.Projects)",
        "numberOfBytes": "32",
        "value": "t_struct(Projects)20_storage"
      },
      "t_string_storage": {
        "encoding": "bytes",
        "label": "string",
        "numberOfBytes": "32"
      },
      "t_struct(Funders)25_storage": {
        "encoding": "inplace",
        "label": "struct crowdFunding.Funders",
        "members": [
          {
            "astId": 22,
            "contract": "contracts/crowdFunding.sol:crowdFunding",
            "label": "name",
            "offset": 0,
            "slot": "0",
            "type": "t_string_storage"
          },
          {
            "astId": 24,
            "contract": "contracts/crowdFunding.sol:crowdFunding",
            "label": "amount",
            "offset": 0,
            "slot": "1",
            "type": "t_uint256"
          }
        ],
        "numberOfBytes": "64"
      },
      "t_struct(Projects)20_storage": {
        "encoding": "inplace",
        "label": "struct crowdFunding.Projects",
        "members": [
          {
            "astId": 11,
            "contract": "contracts/crowdFunding.sol:crowdFunding",
            "label": "lead",
            "offset": 0,
            "slot": "0",
            "type": "t_address"
          },
          {
            "astId": 13,
            "contract": "contracts/crowdFunding.sol:crowdFunding",
            "label": "name",
            "offset": 0,
            "slot": "1",
            "type": "t_string_storage"
          },
          {
            "astId": 15,
            "contract": "contracts/crowdFunding.sol:crowdFunding",
            "label": "about",
            "offset": 0,
            "slot": "2",
            "type": "t_string_storage"
          },
          {
            "astId": 17,
            "contract": "contracts/crowdFunding.sol:crowdFunding",
            "label": "projectId",
            "offset": 0,
            "slot": "3",
            "type": "t_uint256"
          },
          {
            "astId": 19,
            "contract": "contracts/crowdFunding.sol:crowdFunding",
            "label": "raisedMoney",
            "offset": 0,
            "slot": "4",
            "type": "t_uint256"
          }
        ],
        "numberOfBytes": "160"
      },
      "t_uint256": {
        "encoding": "inplace",
        "label": "uint256",
        "numberOfBytes": "32"
      }
    }
  }
}